{
  "contractName": "Collection",
  "abi": [
    {
      "constant": true,
      "inputs": [
        {
          "name": "",
          "type": "uint256"
        }
      ],
      "name": "ballots",
      "outputs": [
        {
          "name": "",
          "type": "address"
        }
      ],
      "payable": false,
      "stateMutability": "view",
      "type": "function"
    },
    {
      "constant": false,
      "inputs": [
        {
          "name": "name",
          "type": "string"
        },
        {
          "name": "_proposals",
          "type": "bytes32[]"
        }
      ],
      "name": "addBallot",
      "outputs": [
        {
          "name": "address_",
          "type": "address"
        }
      ],
      "payable": false,
      "stateMutability": "nonpayable",
      "type": "function"
    },
    {
      "constant": true,
      "inputs": [],
      "name": "getAllBallots",
      "outputs": [
        {
          "name": "ballots_",
          "type": "address[]"
        }
      ],
      "payable": false,
      "stateMutability": "view",
      "type": "function"
    },
    {
      "constant": false,
      "inputs": [
        {
          "name": "address_",
          "type": "address"
        }
      ],
      "name": "delBallot",
      "outputs": [],
      "payable": false,
      "stateMutability": "nonpayable",
      "type": "function"
    }
  ],
  "bytecode": "0x608060405234801561001057600080fd5b50610fd5806100206000396000f300608060405260043610610062576000357c0100000000000000000000000000000000000000000000000000000000900463ffffffff1680630b8710e41461006757806344ae66df146100d35780635c632b38146101165780638d748bdb14610183575b600080fd5b34801561007357600080fd5b5061007c61026f565b6040518080602001828103825283818151815260200191508051906020019060200280838360005b838110156100bf5780820151818401526020810190506100a4565b505050509050019250505060405180910390f35b3480156100df57600080fd5b50610114600480360381019080803573ffffffffffffffffffffffffffffffffffffffff1690602001909291905050506102fd565b005b34801561012257600080fd5b50610141600480360381019080803590602001909291905050506103f0565b604051808273ffffffffffffffffffffffffffffffffffffffff1673ffffffffffffffffffffffffffffffffffffffff16815260200191505060405180910390f35b34801561018f57600080fd5b5061022d600480360381019080803590602001908201803590602001908080601f01602080910402602001604051908101604052809392919081815260200183838082843782019150505050505091929192908035906020019082018035906020019080806020026020016040519081016040528093929190818152602001838360200280828437820191505050505050919291929050505061042e565b604051808273ffffffffffffffffffffffffffffffffffffffff1673ffffffffffffffffffffffffffffffffffffffff16815260200191505060405180910390f35b606060008054806020026020016040519081016040528092919081815260200182805480156102f357602002820191906000526020600020905b8160009054906101000a900473ffffffffffffffffffffffffffffffffffffffff1673ffffffffffffffffffffffffffffffffffffffff16815260200190600101908083116102a9575b5050505050905090565b6000600160009054906101000a900473ffffffffffffffffffffffffffffffffffffffff1673ffffffffffffffffffffffffffffffffffffffff163373ffffffffffffffffffffffffffffffffffffffff1614156103ec57600090505b6000805490508110156103eb578173ffffffffffffffffffffffffffffffffffffffff1660008281548110151561038d57fe5b9060005260206000200160009054906101000a900473ffffffffffffffffffffffffffffffffffffffff1673ffffffffffffffffffffffffffffffffffffffff1614156103de576103dd816105c2565b5b808060010191505061035a565b5b5050565b6000818154811015156103ff57fe5b906000526020600020016000915054906101000a900473ffffffffffffffffffffffffffffffffffffffff1681565b60008033600160006101000a81548173ffffffffffffffffffffffffffffffffffffffff021916908373ffffffffffffffffffffffffffffffffffffffff160217905550838361047c61069d565b808060200180602001838103835285818151815260200191508051906020019080838360005b838110156104bd5780820151818401526020810190506104a2565b50505050905090810190601f1680156104ea5780820380516001836020036101000a031916815260200191505b50838103825284818151815260200191508051906020019060200280838360005b8381101561052657808201518184015260208101905061050b565b50505050905001945050505050604051809103906000f08015801561054f573d6000803e3d6000fd5b50905080915060008290806001815401808255809150509060018203906000526020600020016000909192909190916101000a81548173ffffffffffffffffffffffffffffffffffffffff021916908373ffffffffffffffffffffffffffffffffffffffff160217905550505092915050565b60016000805490500381141515610683575b600080549050811015610682576000600182018154811015156105f357fe5b9060005260206000200160009054906101000a900473ffffffffffffffffffffffffffffffffffffffff1660008281548110151561062d57fe5b9060005260206000200160006101000a81548173ffffffffffffffffffffffffffffffffffffffff021916908373ffffffffffffffffffffffffffffffffffffffff16021790555080806001019150506105d4565b5b60016000805490500360008161069991906106ad565b5050565b6040516108ab806106ff83390190565b8154818355818111156106d4578183600052602060002091820191016106d391906106d9565b5b505050565b6106fb91905b808211156106f75760008160009055506001016106df565b5090565b905600608060405234801561001057600080fd5b506040516108ab3803806108ab833981018060405281019080805182019291906020018051820192919050505060008260009080519060200190610055929190610101565b50600090505b81518110156100f9576003600081548092919060010191905055506060604051908101604052806003548152602001838381518110151561009857fe5b906020019060200201516000191681526020016000815250600160006003548152602001908152602001600020600082015181600001556020820151816001019060001916905560408201518160020155905050808060010191505061005b565b5050506101a6565b828054600181600116156101000203166002900490600052602060002090601f016020900481019282601f1061014257805160ff1916838001178555610170565b82800160010185558215610170579182015b8281111561016f578251825591602001919060010190610154565b5b50905061017d9190610181565b5090565b6101a391905b8082111561019f576000816000905550600101610187565b5090565b90565b6106f6806101b56000396000f300608060405260043610610083576000357c0100000000000000000000000000000000000000000000000000000000900463ffffffff1680630121b93f146100885780633477ee2e146100b5578063370158ea1461010c5780634a79d50c146102175780638e7ea5b2146102a7578063a3ec138d146102da578063a9a981a314610335575b600080fd5b34801561009457600080fd5b506100b360048036038101908080359060200190929190505050610360565b005b3480156100c157600080fd5b506100e06004803603810190808035906020019092919050505061045d565b604051808481526020018360001916600019168152602001828152602001935050505060405180910390f35b34801561011857600080fd5b50610121610487565b6040518080602001806020018460001916600019168152602001838103835286818151815260200191508051906020019080838360005b83811015610173578082015181840152602081019050610158565b50505050905090810190601f1680156101a05780820380516001836020036101000a031916815260200191505b50838103825285818151815260200191508051906020019080838360005b838110156101d95780820151818401526020810190506101be565b50505050905090810190601f1680156102065780820380516001836020036101000a031916815260200191505b509550505050505060405180910390f35b34801561022357600080fd5b5061022c61056f565b6040518080602001828103825283818151815260200191508051906020019080838360005b8381101561026c578082015181840152602081019050610251565b50505050905090810190601f1680156102995780820380516001836020036101000a031916815260200191505b509250505060405180910390f35b3480156102b357600080fd5b506102bc61060d565b60405180826000191660001916815260200191505060405180910390f35b3480156102e657600080fd5b5061031b600480360381019080803573ffffffffffffffffffffffffffffffffffffffff1690602001909291905050506106a4565b604051808215151515815260200191505060405180910390f35b34801561034157600080fd5b5061034a6106c4565b6040518082815260200191505060405180910390f35b60008111801561037257506003548111155b151561037d57600080fd5b60011515600260003373ffffffffffffffffffffffffffffffffffffffff1673ffffffffffffffffffffffffffffffffffffffff16815260200190815260200160002060009054906101000a900460ff16151514156103db57610434565b6001600260003373ffffffffffffffffffffffffffffffffffffffff1673ffffffffffffffffffffffffffffffffffffffff16815260200190815260200160002060006101000a81548160ff0219169083151502179055505b600160008281526020019081526020016000206002016000815480929190600101919050555050565b60016020528060005260406000206000915090508060000154908060010154908060020154905083565b6060806000808054600181600116156101000203166002900480601f0160208091040260200160405190810160405280929190818152602001828054600181600116156101000203166002900480156105215780601f106104f657610100808354040283529160200191610521565b820191906000526020600020905b81548152906001019060200180831161050457829003601f168201915b505050505092506040805190810160405280600581526020017f4b656e6479000000000000000000000000000000000000000000000000000000815250915061056861060d565b9050909192565b60008054600181600116156101000203166002900480601f0160208091040260200160405190810160405280929190818152602001828054600181600116156101000203166002900480156106055780601f106105da57610100808354040283529160200191610605565b820191906000526020600020905b8154815290600101906020018083116105e857829003601f168201915b505050505081565b60008060008060009250600190505b600354811115156106855782600160008381526020019081526020016000206002015411156106785760016000828152602001908152602001600020600201549250600160008281526020019081526020016000206001015491505b808060010191505061061c565b600083141561069a576000600102935061069e565b8193505b50505090565b60026020528060005260406000206000915054906101000a900460ff1681565b600354815600a165627a7a72305820893956ee6c78e710021df9aa66285690864d818ae6943755c1bdc792c40628f80029a165627a7a72305820d098b58ef0d9b4da5bd3c620797bb6ad82335e3bc6b38acf8734edd4a6edd3030029",
  "source": "pragma solidity ^0.4.2;\n\nimport \"./Election.sol\";\n\ncontract Collection {\n    address[] public ballots;\n    address owner ;\n        function addBallot(string name,bytes32[] _proposals) public  returns(address address_) {\n        owner = msg.sender;\n        Election election = new Election(name,_proposals);\n        address_ = address(election);\n        ballots.push(address_);\n    }\n\n    function getAllBallots() public view returns (address[] ballots_) {\n        ballots_ = ballots;\n    }\n    function delBallot(address address_) public  {\n        if(msg.sender==owner){\n            for(uint i=0;i<ballots.length;i++){\n                if(ballots[i]==address_){\n                    updateArrays(i);\n                }\n            }\n                \n}\n    }\n    \n    function updateArrays(uint i) private{\n        if(i!=ballots.length-1){\n            for(i;i<ballots.length;i++){\n                ballots[i] = ballots[i+1];\n            }\n        }\n        ballots.length = ballots.length-1;\n    }\n}",
  "sourcePath": "D:/VoteSystem/contracts/Collection.sol",
  "compiler": {
    "name": "solc",
    "version": "0.4.25+commit.59dbf8f1.Emscripten.clang"
  },
  "schemaVersion": "3.0.10",
  "updatedAt": "2019-06-16T09:13:19.247Z",
  "devdoc": {
    "methods": {}
  },
  "userdoc": {
    "methods": {}
  }
}